:020000040800F2
:10000000EA17002425030008A9020008A902000835
:10001000A9020008A9020008A9020008A902000814
:10002000A9020008A9020008A9020008A902000804
:10003000A9020008A9020008A9020008A9020008F4
:10004000A9020008A9020008A9020008A9020008E4
:10029000A9020008A90200080000000000000000F8
:1002A000FFECC2925D7D05C5EFF305801EF0040FE3
:1002B00002D0EFF309818D466A4602F16802EFF33E
:1002C00011832DED108A2DE9FC4F69466C46DFF84D
:1002D00050D000F001FA2146884213D000F16C01A1
:1002E000B1E8F00FB1EC100A91E80C00016821E9C7
:1002F0000C0021ED100A21E9F00FB0E8FC4F90EC62
:10030000108A03E0B1E8FC4FB1EC108A1EF0040F34
:100310000CBF81F3088881F3098883F31188704743
:10032000E002002408B51F4A00211F4B934231D33D
:100330001E4B1F4A1F498B422FD300F01BF9EFF3CE
:10034000148343F0040383F314881B4A1368A2F553
:10035000D67223F04043C2F8AC31136843F4700303
:10036000136000F05DF9BFF34F8FBFF36F8F134A37
:10037000136823F001031360536823F001035360F3
:10038000BFF34F8FBFF36F8F00F045FC00F008FA0A
:1003900000F054FC43F8041BC8E752F8040B43F880
:1003A000040BC8E7FC140024E00000240000002433
:1003B000E89F0008DC00002434EF00E090EF00E04C
:1003C000594B82B01A6822F4802242F480321A60BB
:1003D000564A0192019A002A00F39F80019B002B4C
:1003E00040F39980524A5349136823F4706323F011
:1003F0000F0343F0080313600B6823F4E06343F03A
:1004000040030B600B6823F4E06343F480630B60EC
:10041000136823F0700343F040031360936823F0E4
:10042000700343F040039360434B444A283B9A6275
:10043000434A1A63434A9A6302F500321A64424AF5
:10044000DA621A6842F0A8521A601A689201FCD562
:100450001A681001FCD5344A13689900FCD53B4A50
:10046000136843F006031360394B1A6842F44042A4
:100470001A601A689204FCD536490A689004FCD5C3
:1004800035490A6842F002020A6034490A6842F0BB
:1004900001020A601A689204FCD5314B22221A60CC
:1004A000304B1A6822F0070242F003021A601A6801
:1004B00002F03802182AFAD12B482C4A036823F498
:1004C000405343F400530360136823F4407343F430
:1004D00000731360264B196821F4E04141F4805108
:1004E0001960196821F4E02141F480311960116824
:1004F00021F0E04141F080511160016821F4401188
:1005000041F400110160116821F4403111601A6852
:1005100022F040521A6002B070471A6891033FF50A
:100520005DAF019A013A54E70044025848BE2100E9
:10053000184402581C440258284402581220200033
:10054000770203072F0201018808BF000C480258F8
:100550001848025804480258F44402582C04005821
:100560000020005210440258544402585844025883
:100570005044025808B5204B012100201A6842F06F
:1005800001021A601D4A11601D4A10601D4A196857
:100590000A401D4942F010021A601C4A11601A6894
:1005A00022F480221A60186600F07AF8FFF708FF3C
:1005B000174A136843F0006343F001031360154BBF
:1005C0001A681A6053F8082C43F8082C124A13686A
:1005D00043F0805343F09F031360104B1A681A6076
:1005E0005A685A609A689A6053F8042C43F8042CAD
:1005F000DA68DA6008BD00BF004402580881005183
:100600001044025867EFFEEA0000FF012C44025834
:10061000D8440258DC440258E0440258E8440258E6
:100620007047FFEC30B4EFF3118400238022EFF326
:10063000108372B682F3118883F31088BFF34F8F53
:10064000154B164A1B68118803F4807578B1013187
:100650001180128875B1BAB10023BFF34F8FE4B295
:1006600084F31188ABB1042030BC00F05CB849B110
:100670000139EDE7002AEFD043F48073064A136096
:100680000123EAE7002DE7D023F48073024A1360C8
:10069000E2E730BC704700BF00480258E002002487
:1006A000EFF3118200238021EFF3108372B681F300
:1006B000118883F3108806490B6823F480730B605C
:1006C0000021044B1980D3B283F31188FFF7AABF2E
:1006D00000480258E0020024F8B5074C06460D46D3
:1006E0002768216000F041F93046294600F0C2FB3E
:1006F00020682760F8BD00BFE402002430B5EFF3A6
:10070000118400238025EFF3108372B685F31188DE
:1007100083F31088036823EA0101E3B20A4302600D
:1007200083F3118830BD82B0002245F26161B0F5DB
:100730007A7F0BD8002240F6A201642811D800224B
:100740000A2818D8002200BB02B070470192019B12
:100750008B4202DDA0F57A70E9E7019B013301933A
:10076000F5E70192019B8B4201DD6438E5E7019BCF
:1007700001330193F6E70192019BDC2B01DD0A387E
:10078000DEE7019B01330193F6E70192019B152BF4
:1007900001DD0138D7E7019B01330193F6E7FFEC58
:1007A000BFF34F8FBFF36F8F064B00221A60064ACC
:1007B000136843F400331360BFF34F8FBFF36F8FA1
:1007C000704700BF50EF00E014ED00E00F2810B5B7
:1007D00031DDA0F110041F2C0ADC03F1604303F5A6
:1007E00061430B60012303FA04F4146000201CE051
:1007F0003F2C08D81C4C30381C440C60012303FAF1
:1008000000F01060F2E75F2C04D8184C50381C44FC
:100810000C60F3E77F2C04D8154C70381C440C6036
:10082000ECE7952C02D94FF0FF3010BD114C9038F9
:100830001C440C60E2E7104B04280B6003D14FF41A
:1008400080331360D2E7052802D14FF40033F8E774
:10085000062802D14FF48023F3E70F28E3D1074B9A
:100860000B600123EDE700BF04E100E008E100E0D8
:100870000CE100E010E100E024ED00E010E000E019
:100880001D4B4FF0FF301D4910B51B6803F00F03DF
:100890005A1C03F1382361339B0041F8040B8B424F
:1008A000FBD1174B1749184C19604FF08031196173
:1008B000216099615301154A03F1604303F56443D4
:1008C00042F8041B9342FBD1114B002211490B202B
:1008D0001A6000F0A7FA00220F49032000F0A2FAE4
:1008E000236823F07F4343F0E0432360F02383F346
:1008F000118862B610BD00BF04E000E080E100E0B6
:1009000008ED00E0000000081CED00E000E400E05D
:10091000E4020024910900086D09000813B5802342
:1009200001AA69460446FFF751FF20B90F2CDDE903
:10093000003102DD196002B010BD1A6822EA01021E
:100940001A60F8E713B5002301AA69460446FFF7C9
:100950003DFF20B90F2CDDE9003102DD196002B046
:1009600010BD1A680A431A60F9E7704708B5EFF33B
:10097000118300238022EFF3108372B682F3118873
:1009800083F310888721014800F03AF9109A000893
:10099000CB6E012B10B50C4608D0022B0AD01BB928
:1009A000D422086F00F024F8002010BD0A6F044B19
:1009B0001A60F9E7D422086F00F01AF8626FF6E7C0
:1009C000E4020024FFECC2925D7D05C5FFECC292FB
:1009D00018DF88DFCD06CD767CD30CD3D982D9122F
:1009E0002C00050A0F14191E232800BFAFF3008046
:1009F00000B501B400F004F801BC00BDAFF3008005
:100A000000B5042A60DB00F0030E61F3830E7A4B1D
:100A1000D3E80EF0AFF30080AFF30080AFF30080B7
:100A200011F8013B00F8013BA2F1010211F8013B72
:100A300000F8013BA2F1010211F8013B00F8013B73
:100A4000A2F101022DE9F01F282A07DBB1E8F81F07
:100A5000A0E8F81FA2F12802282AF7DADFF89CE1C3
:100A60004FEA920BDEE80BF051F8043B40F8043BF0
:100A700026E0B1E81800A0E8180021E0B1E838004D
:100A8000A0E838001CE0B1E87800A0E8780017E0A2
:100A9000B1E8F800A0E8F80012E0B1E8F801A0E839
:100AA000F8010DE0B1E8F803A0E8F80308E0B1E8C8
:100AB000F807A0E8F80703E0B1E8F80FA0E8F80F9E
:100AC000BDE8F01F02F00302002A08BF00BD11F8C4
:100AD000013B00F8013B013A08BF00BD11F8013BA2
:100AE00000F8013B013A08BF00BD11F8013B00F8D6
:100AF000013B00BDAFF30080AFF30080AFF3008097
:100B000011F8013B00F8013BA2F1010211F8013B91
:100B100000F8013BA2F1010211F8013B00F8013B92
:100B2000A2F10102282A35DB2DE9F01FB1E8F81FF8
:100B300020F8023B4FEA134364F31F434FEA144487
:100B400065F31F444FEA154566F31F454FEA164605
:100B500067F31F464FEA174768F31F474FEA1848E5
:100B600069F31F484FEA19496AF31F494FEA1A4AC5
:100B70006BF31F4A4FEA1B4B6CF31F4BA0E8F80FB7
:100B80004FEA1C4C20F802CBA2F12802282ACDDA29
:100B9000BDE8F01F042A97DB51F8043B20F8023B24
:100BA0004FEA134320F8023BA2F10402BAE711F81E
:100BB000013B00F8013BA2F1010211F8013B00F8F2
:100BC000013BA2F1010211F8013B00F8013BA2F147
:100BD0000102042AFFF678AF51F8043B00F8013B0C
:100BE0004FEA132320F8023B4FEA134300F8013B7E
:100BF000A2F10402EDE70000D0090008E0090008B6
:100C000008B501F0B3FB012000F09EFB012008B500
:100C100000F09AFB704700F009B8002070470021EF
:100C2000084601F051BA04F0C1BDFFEC014801F0E3
:100C30009DBA00BF080C02007047FFEC534E012321
:100C40000024534D33704FF4B472524B05F5A47821
:100C500083B5514F214628463C607C601C605C6037
:100C60004E4B1C605C604E4B1C605C604D4B1C60CE
:100C70005C604D4B1C605C6003F0A4FE03231822F3
:100C80004A494046AB764A4BAC81C5E9043306235A
:100C9000AB8303F0E8FE474B3946284685F86041B0
:100CA000C5F86431C3E9008403F043FD424B01A958
:100CB00068461D600223414C337001F035FADDE9CE
:100CC000000103F043FA042323602368012B50DD65
:100CD0002068C00003F050FA0022394B4FF6FF7C29
:100CE0001746186020681968904245DC2268002485
:100CF0000D601B6826489C80297F00F043FB244838
:100D000001F0FAFB1821224801F0CEFCAB689B6889
:100D100003601F4800F050FBAB6801221A71294B99
:100D20001C800323337006F07DFD274B0BB100F0D0
:100D30007BFB264B0BB101F09BF9254B0BB107F068
:100D400049FA244B0BB100F0C9FF01F0B5FB0423B5
:100D50000F48337000F052FB05F09CFD00F0BAF82C
:100D60000523337000F04CF800F0C2F801F0EFFCFE
:100D7000FCE723685B00A7E741F83270196801EBD4
:100D8000C2010132A1F804C0ACE700BF680400242E
:100D9000F00200246C040024780400248C04002455
:100DA000940400248404002458040024289A000891
:100DB0003D0C0008E80200248004002464040024A0
:100DC0007404002460040024291400087120000821
:100DD000D5810008DD1C000813B50024FFF71FFFB4
:100DE000054B4FF4386264210094044800F0D7F8B2
:100DF000204602B010BD00BF61930008749A00083D
:100E000013B50024054B4FF40062FE210094044802
:100E100000F0DEF8204602B010BD00BFD90D00087A
:100E2000799A0008A52870B505460C461AD8EFF344
:100E3000118600238021EFF3108372B681F31188AD
:100E400083F310881CB9FFF769FD2246074C084858
:100E5000F6B240F8354000EBC500426086F31188D9
:100E6000002070BD6FF01500FBE700BFB10E000859
:100E70009C040024A52808B50CD8094A52F8303043
:100E80005BB102EBC00252689847064B1A68064BEA
:100E90001A6008BD0022054BF6E71A46FBE700BFC3
:100EA0009C0400247804002480040024B10E00086F
:100EB00008B5EFF3118300238022EFF3108372B69D
:100EC00082F3118883F3108833210148FFF798FEDD
:100ED000849A0008054B10B51C682CB101F03CFB4E
:100EE00010B9E38B0133E383002010BD78040024A4
:100EF00038B5144B1C68CCB101F02EFBB0B9EFF340
:100F0000118500238022EFF3108372B682F31188DB
:100F100083F31088B4F91E30002B09DC0023E3832F
:100F2000094B1B6853B9EDB285F31188002038BD19
:100F3000013B9BB2E383002BF5D1EFE701F014FBFB
:100F4000F1E700BF780400246C04002470B586B07B
:100F500004464FF4B4700E46CDE9043203F01CF998
:100F60000546C8B10C99868302910B9901910A99A3
:100F7000DDE904320091214600F034F8041E05DA60
:100F8000284603F0F1F8204606B070BD2846B5F9B2
:100F90000C4000F0A3F9F6E76FF00B04F3E71FB580
:100FA000069C00920A46CDE9013400231946FFF75A
:100FB000CDFF04B010BD1FB5079C0294069CCDE97F
:100FC000003413460A460221FFF7C0FF04B010BDEB
:100FD00013B5049CCDE9003413460022FFF7EBFF64
:100FE00002B010BD2DE9F347067F884605469146BD
:100FF00031461F46DDF828A000F0C4F9041E44DB8A
:10100000284606F0030600F004FA041E38DB77B128
:1010100052463946284601F083FB041E32DB182174
:10102000284601F041FB88B96FF00B0428E03246F6
:101030000AF11801284601F001FA041EEFDAAB6B41
:1010400003B33146284601F0ABFA1BE0AB684946D2
:10105000104A9B68036028460B9B009600F01EF820
:10106000041E0DDB0C9A4146284600F0CBF82846BA
:1010700000F0A2F9044640B10749284603F064FB9A
:10108000002FDCD0284600F09FF9204602B0BDE8D2
:10109000F08700BF01130008580400242DE9F04F29
:1010A00085B00446CDE901120393EFF311860023C6
:1010B0008022EFF3108372B682F3118883F31088D5
:1010C000DFF83891DFF83881CA46B9F800200020EF
:1010D000D8F800B00132474F12B23D68A8420DDB8C
:1010E0003868000103F048F84249054600284DD110
:1010F000F6B286F311886FF00B0040E0012A3D68DC
:10110000B8BF0122013D15404FEAC50C0BEBC50EDF
:101110005BF83550002D35D1CEF80040F6B2D8F846
:101120000030AAF800209C44ACF80420A28186F389
:101130001188029B03209DF838202361039B02F055
:1011400003029DF804106361A38B217623F0C3038F
:1011500061762946134304F14402A38300F0C2F9E7
:101160002046A57601F0C8F9FFF7B4FE22492046D3
:1011700003F0DFFA0423A376FFF7BAFE284605B092
:10118000BDE8F08F0132013012B2A6E73A6800F1F3
:10119000040C4FF6FF7E52003A60002217460868A2
:1011A00082420FDB59460020124F3A68083102EBA9
:1011B000D272B0EB620F0BDB584602F0D5FFC8F8D5
:1011C000005082E745F832702CF832E00132E6E751
:1011D0003A68013031F904CC013A51F8083C0CEA84
:1011E000020205EBC20C45F8323031F9042CACF8A0
:1011F0000420DAE764040024580400246004002476
:1012000074040024344B2DE9F74F002914BF88469D
:1012100098460746002415464146182200F5A4705A
:1012200003F021FC404687F8604103F014FC461CA3
:1012300045BB2C460234384606EB840101F034FAF3
:1012400006464FEA8409002843D000EB090AA9F1B9
:101250000809B346043DC0F800A0404603F0FBFB7C
:101260000446B14441460134504603F0ECFB54447B
:10127000D9451AD100204AF8040CC7F8646103B0BC
:10128000BDE8F08F40F2011955F824000028D1D0B4
:1012900003F0E1FB01307B6B06449E4216D2013421
:1012A0004C45F1D16FF00600E9E74BF8044F55F8D3
:1012B000041F0846019103F0CEFB804601992046A9
:1012C00008F1010803F0BFFB4444D1E76FF05A0076
:1012D000D5E76FF00B00D2E79C9A000810B5EFF34A
:1012E000118400238022EFF3108372B682F31188F9
:1012F00083F3108801F0F4F9E4B284F3118810BD8F
:1013000038B5104B1C68204600F0CEFBD4F86421A1
:10131000012040F2011152F820304BB9A38B6569CE
:1013200003F00303022B08D11146A84700F00CF884
:1013300001308842EFD10120F8E70146284603F04A
:1013400011FAF8E7780400240446002208B5E4B254
:10135000034B2146186800F0CFFB204601F096F8B9
:101360007804002410B5044658B1806820B100F01C
:10137000A1F8A06802F0F8FE2046BDE8104002F097
:10138000F3BE10BD38B505464FF4867002F004FF79
:10139000044638B1342002F0FFFEA06028B9204690
:1013A000FFF7E0FF6FF00B0005E00122002103F0E2
:1013B00003FA0020AC6038BDB0F90C20836800202F
:1013C0001A8001225A71704738B58468054634B1D5
:1013D0006379012B04D9013B63710023AB6038BDF5
:1013E000204600F065F904F1200006F04AFA204694
:1013F00003F004F92046FFF7B5FFEEE710B5044609
:101400008068203006F039FA2046BDE8104000F030
:10141000B6BB10B504468068203006F02EFA204690
:10142000BDE8104000F0ABBB0023064A0648194651
:101430000133A62BC2E9000102F10802F8D1FFF73F
:101440001FBA00BF9C040024B10E000870B504460A
:1014500050B3B0F90C00E0B1EFF311820023802506
:10146000EFF3108372B685F3118883F310880F4B66
:1014700000261B68013B03400D48056845F83360B2
:10148000006800EBC3034FF6FF709880D3B283F37C
:101490001188A36B13B1204601F082F82046FFF7B4
:1014A00093FF204602F060FE002070BD640400241B
:1014B0007404002430B103881B0401D40123038089
:1014C000002070476FF01500704710B5FFF7F2FF6E
:1014D000041E05DA644203F06EF804604FF0FF3436
:1014E000204610BDF8B51746194B06460C461D6838
:1014F000FFF7F0FC0FB16B6C3B60D4B1EFF31183DD
:1015000000228021EFF3108272B681F3118882F3FA
:101510001088022E11D0032E14D0012E14D16A6C23
:1015200021680A4300246A64DBB283F3118800F067
:1015300011F8FFF7DDFC2046F8BD21686A6C22EA4D
:101540000102EFE72268EDE76FF01504ECE700BF5A
:1015500078040024184B30B51D6885B0FFF7BAFC3D
:101560006C6C284600F0A8FCE4430440039424B9C2
:10157000FFF7BEFC204605B030BD03A800F070F8B0
:10158000431C014610D0019003A803F03DF90199D6
:10159000284600F013F8044630B1011D284600F03B
:1015A0009BF8204600F02EF8039B002BE5D1FFF7B7
:1015B0009FFC0120DFE700BF7804002438B5836872
:1015C000EFF3118500228020EFF3108272B680F3D2
:1015D000118882F3108800205C6974B122798A42F4
:1015E00006D103F1140130B9084603F07DF804E098
:1015F00020462468F1E703F081F8EDB285F3118805
:10160000204638BD10B5037B83B9EFF311848022E7
:10161000EFF3108372B682F3118883F310880E49BA
:1016200003F042F8E4B284F3118810BD022B0CD110
:10163000EFF3118400238022EFF3108372B682F35C
:10164000118883F310880549EAE7012BEDD1BDE845
:10165000104002F089BD00BFEC090024E409002419
:1016600038B5054601242146284603F0DEF820B9A6
:101670000134202CF7D14FF0FF34204638BD38B567
:10168000044600F14C05284603F02EF850B904F149
:101690005405284603F028F838B94FF0FF32C4E962
:1016A000112038BD00F060FCEDE700F05DFCF0E7D4
:1016B00038B5044600F10C05284603F015F828B9A2
:1016C0001434204603F010F818B938BD00F078FB48
:1016D000F2E7FFF797FFF4E72DE9F0410D460978AF
:1016E000044629B3443003F0A0F8012807467ED110
:1016F000EFF3118600238022EFF3108372B682F39A
:10170000118883F31088A37EF6B2062B12D12978B4
:1017100004F1480003F089F860B12B682046E365C6
:101720006B6823660023A36400F0DAFF86F3118858
:101730000026B3E086F31188A4682978EFF31182BC
:1017400000238020EFF3108372B680F3118883F3B7
:101750001088636913B11879884208D1D2B282F334
:10176000118833B12A685A606A689A60E0E71B689A
:10177000F0E700F0F1FEF8B1544802F0B5FF20B9EF
:10178000534802F0B1FF0028D2D02B6843606B6849
:101790008360EFF3118500238022EFF3108372B68C
:1017A00082F3118883F3108804F11401EDB202F082
:1017B0007BFF85F31188BBE7EFF3118600238022BE
:1017C000EFF3108372B682F3118883F310883F48D9
:1017D000F6B202F089FF86F311880028D5D11020D7
:1017E00002F0CAFC0028A3D001230373CDE7FFF762
:1017F00071FB2978A06800F07BFB064640B3406887
:1018000028B300F087FB00284BD073684360B268B0
:101810008260F3689B0604D4297801238B4013432C
:1018200083602B68C3606B680361EFF3118600234C
:101830008022EFF3108372B682F3118883F310884D
:1018400004F14C01F6B202F02FFF86F31188002656
:10185000FFF74EFBEFF3118800238022EFF3108394
:1018600072B682F3118883F310881A49204600F07B
:10187000A9FEA37E062B08D12B682046E3656B6882
:1018800023660023A36400F02BFF5FFA88F888F337
:101890001188002F08D001DA6FF015063046BDE838
:1018A000F0816FF00B06D3E7A37E052B03D1042153
:1018B000204600F0F5F9A37E072BEFD12B78082BFB
:1018C000ECD1204600F0C1F9E8E700BFEC090024A4
:1018D000E4090024F918000807B5019100F06CF93B
:1018E00028B1019903B05DF804EBFFF7F5BE6FF086
:1018F000020003B05DF804FB2DE9F04F044685B00B
:101900004FF0800900F14C0A00F15408EFF3118305
:10191000019FEFF3108772B689F3118887F310885F
:10192000A28B0197DFB212F4007204D087F3118802
:1019300005B0BDE8F08F5046039202F0D5FE039A41
:1019400006460028F2D0A18B039241F40071A183D6
:10195000414602F0A9FED4F844B0B5684BEA05054B
:10196000656487F31188736806F10C01039A307B74
:101970009847EFF31183029A0393EFF3108272B644
:1019800089F3118882F3108802924146A28B304677
:1019900022F40072A283626C554082EA0B02154069
:1019A00085EA0B05656402F089FE039BDBB283F3D5
:1019B0001188FFF7CFFD304600F0D6FAA6E7704752
:1019C000054B10B51C68FFF785FA204600F01CF99E
:1019D000BDE81040FFF78CBA7804002408B5044B2A
:1019E000186800F0AEF810B90120FFF7ADFC08BD93
:1019F0007804002408B580681C3002F016FF002827
:101A0000D4BF0020012008BD0023084A12F833107B
:101A1000814206D102EBC3035878C04300F00100B5
:101A2000704701330B2BF1D101207047A89A0008B1
:101A300038B585685AB100231A4A12F8330081423A
:101A400019D102EBC30305F11C005C68BCB9EFF3CC
:101A5000118400238022EFF3108372B682F3118881
:101A600083F3108805F11C00E4B202F0CDFE84F38C
:101A70001188002413E001330B2BDED1E7E7EFF3ED
:101A8000118500238022EFF3108372B682F3118850
:101A900083F3108802F0ABFEEDB285F31188204687
:101AA00038BD00BFA89A00082DE9F04386680024DD
:101AB000104D4FF002091C36A04685B0304602F0AA
:101AC000B0FE6B6873B12F7801A90022CDF80C909D
:101AD0003846CDE90138012300F078F9394630461F
:101AE00002F085FE013408350B2CEAD1002005B048
:101AF000BDE8F083A89A000810B5838B04461B0547
:101B000015D43AB9806828B14379012B02D1283025
:101B100002F0A8FE204600F00BF82046FFF754FC28
:101B20002046FFF7ACFDA38B43F40063A38310BDF5
:101B300010B5044600F020F82046BDE8104000F043
:101B400096B8EFF3118100238022EFF3108372B671
:101B500082F3118883F31088838BC9B213F00402D7
:101B600006D043F01003838381F31188012070476E
:101B700081F3118810467047243000F023BA07B56E
:101B800002468068019202F01BFD0023019A0121A8
:101B9000184606F00EFA019A00230621012006F0ED
:101BA00008FA0023019A0621022006F002FA00201A
:101BB00003B05DF804FBFFEC002810B51DDBEFF36C
:101BC000118200238021EFF3108372B681F3118814
:101BD00083F310880A4B0B491B680968013B0340DB
:101BE00001EBC304B4F9044084420CBF51F8330044
:101BF0000020D3B283F3118810BD0020FCE700BFA2
:101C0000640400247404002438B50446EFF31185FD
:101C100000238022EFF3108372B682F3118883F3DE
:101C20001088837E043B032B0BD800F013FA0423A7
:101C300007212046238400F0F9F9EDB285F31188DD
:101C400038BD072100F0C0FBF7E710B5EFF31184B2
:101C500000238022EFF3108372B682F3118883F39E
:101C6000108800F03DFDE4B284F3118810BDEFF35D
:101C7000118200238021EFF3108372B681F3118863
:101C800083F31088837E052B06D1016C0B8801330A
:101C90001BB20B8000230364D3B283F31188704717
:101CA00038B5EFF3118400228025EFF3108272B66D
:101CB00085F3118882F31088827E052A09D1056C8C
:101CC0002A88013212B22A8000220184026400F0C4
:101CD00007FDE4B284F3118838BDFFECF8B50024A9
:101CE000284B294E6020C3E90044284BC3E9004437
:101CF000274BC3E90044274BC6E90044C3E900442D
:101D000002F03AFA054648B100F160072C75284602
:101D10001835314602F0C8FCAF42F7D1C02002F0BE
:101D20002BFA044658B100F1C0050227174E27755B
:101D300020461834314602F0B7FCA542F7D14020C6
:101D400002F01AFA044658B100F140050027104E7F
:101D5000277320461034314602F0A6FCA542F7D185
:101D6000802002F009FA044658B100F180050227EC
:101D7000084E277320461034314602F095FCA542E8
:101D8000F7D1F8BDCC090024D4090024DC090024D3
:101D9000EC090024E409002470B5502002F0ECF9AD
:101DA000044648B100F15005044E20461434314633
:101DB00002F07AFCAC42F8D170BD00BFCC0900241F
:101DC000014902F071BC00BFCC0900242DE9F843A1
:101DD0001546374A1F280746D2F800800E46D8F825
:101DE000089003D96FF01500BDE8F88341B9394672
:101DF000484600F07DF8044665B916BB0020F3E7BD
:101E0000002BF4D10B68012BF1D0FFF7FDFD00286A
:101E1000EDD1E7E739464046FFF7ECFD30B100234E
:101E20000122C5E900230223AB60E6E72CB1636819
:101E30002B60A3686B60E368F6E7C5E90044AC601B
:101E4000DBE73568012D11D12A4639464046FFF7B8
:101E5000EFFD054685B9002CD0D0204609F10C01D4
:101E600002F02CFC2046FFF7ABFFC7E70022394603
:101E70004046FFF7DDFDEDE78CB90E4802F034FC7B
:101E8000044630B9FFF788FF0A4802F02DFC0446EB
:101E900058B109F10C012046277402F005FC656079
:101EA0007368A360B368E360A8E76FF00B009BE77B
:101EB00078040024CC090024002337B582680193FC
:101EC000EFF311858021EFF3108372B681F311884F
:101ED00083F3108854692CB9EDB285F31188019809
:101EE00003B030BD217901A802F081FC2468F2E73B
:101EF00038B50D46044640B1FEF7ECFFE46814B176
:101F0000237CAB4203D1FEF7F3FF204638BD2468A3
:101F1000F5E7FFEC10B500F01FFB40B1104802F0F0
:101F2000E3FBE0B90F48BDE8104002F0DDBBEFF382
:101F3000118400238022EFF3108372B682F311889C
:101F400083F310880648E4B202F0CEFB84F31188D4
:101F500028B9182002F010F908B10123037510BD4B
:101F6000D4090024DC09002410B5037D83B9EFF304
:101F700011848022EFF3108372B682F3118883F309
:101F800010880E4902F090FBE4B284F3118810BD72
:101F9000022B0CD1EFF3118400238022EFF3108386
:101FA00072B682F3118883F310880549EAE7012BA2
:101FB000EDD1BDE8104002F0D7B800BFD40900242D
:101FC000DC09002438B50446EFF311850023802294
:101FD000EFF3108372B682F3118883F31088F0B1A7
:101FE0004368E3B1104B00201B68DBB1A3420FD163
:101FF00023681BB19A68A1680A449A6058B10A49DB
:1020000002F07CFB00206060EDB285F3118838BDE2
:1020100018461B68E9E7044802F066FBF2E76FF038
:102020001500F1E71B68FFDEF409002438B50C4603
:10203000074B054653F8311003EBC4031B79DB074C
:1020400003D500F01DF8AC7638BD02F067FBFAE767
:10205000349A0008054B827E10B553F832100446BE
:1020600002F072FB0023A37610BD00BF349A000873
:10207000024B0022C3E90022704700BFF40900248C
:1020800010B50B68027EB3B11C7E944206D25A682A
:1020900062B9C0E900325860086013E01B68F2E7DB
:1020A000C0E900321060486000200CE0C0E9003256
:1020B00010605860F8E74A68002AF1D1C0E900339F
:1020C000C1E90000012010BD37B5124D2C682CB1BC
:1020D000114802F0B4FB012003B030BD0F4802F0FC
:1020E000AEFB40F2011369464FF60C70ADF80030BC
:1020F0008DF80240019503F057FE011E04DA4942B3
:10210000074802F09CFBE6E7064802F098FB2046F1
:10211000E2E700BFFC090024009B0008239B0008A5
:102120004E9B00088D9B0008044B1B680360C3F1A5
:10213000105303F500230B60704700BF0C9A000892
:1021400002064FEA10130CD403F00F03064A52F8AC
:10215000232032B100F00F00012319B103FA00F07F
:10216000906170471030F9E7C89B00082DE9F047EF
:1021700005090446C0F3031715F0080540F0D380A5
:102180006A4B53F82760002E00F0CD8000F4402306
:1021900000F00F08B3F5002F00F0B280B3F5402F28
:1021A00000F0B080B3F5802F40F0AE80C0F3002186
:1021B000FFF7C6FF0121EFF3118200238020EFF328
:1021C000108372B680F3118883F31088022940F0DF
:1021D0009D8014F4704FC4F3033017D023074FF0E1
:1021E0000F094BBFA8F1080343464FF0240C4FF0F2
:1021F000200C9B005CF806E009FA03F900FA03F3EF
:102200002EEA090E43EA0E034CF806304FEA48095D
:102210000323D6F800E0032903FA09F32EEA030E9C
:102220006FEA030C01FA09F343EA0E0333606FD03F
:1022300004F44033B3F5803F6CD0B3F5003F0CBFDE
:1022400002230023D6F80CE003FA09F30CEA0E0E81
:1022500043EA0E03F36080B923074FF00F0A4BBF28
:10226000A8F108034346242020209B0050F806E0F4
:102270000AFA03F32EEA0303835101F1FF3EBEF194
:10228000010F0DD804F44065B5F5006F44D0B5F5E5
:10229000406F43D0A5F5806ADAF1000545EB0A05E9
:1022A000B36805FA09F50120BEF1010F0CEA030C31
:1022B00000FA08F045EA0C05B560736830D8A5054A
:1022C0002ED503430129736014D0E30512D504F021
:1022D0000C044FEA88030F2004F1B04403F00C0310
:1022E000D4F80814984007FA03F321EA00010B43DD
:1022F000C4F80834D2B282F311880020BDE8F08718
:10230000022158E7032156E7294654E700207DE7DC
:10231000002397E7012395E70225C1E70325BFE7DF
:1023200023EA0003CEE76FF01500E7E7C89B00083B
:10233000C0B2FFF71BBFFFEC02064FEA101310D428
:1023400003F00F03084A52F8233053B11A6900F022
:102350000F00012303FA00F0104214BF18460020BA
:1023600070470020704700BFC89B000808B504F004
:1023700085FA04F083FA04F081FA104B1B6873B1FC
:10238000EFF3118300238022EFF3108372B682F300
:10239000118883F31088002007F0B8F8FBE700F0FD
:1023A000DBF848B1064B1B681B68002BE8D0002007
:1023B000BDE8084007F0AAB8024BF4E7E4020024A5
:1023C0008004002478040024F7B50746124D0191DB
:1023D0002E6805F035FF019904463846FFF726FEC2
:1023E0000E4B1B681BB105F03FFF0443E4B24CB138
:1023F0000B4C06F17400216831B100F013F82B6822
:102400007433236003B0F0BD2968743103B0BDE8B4
:10241000F04000F0B8B900BF780400246C04002438
:10242000E4020024814208D0043801F1D40351F8B9
:10243000042B8B4240F8042FF9D1704738B50D4674
:10244000836B04461146073525F007058BB92946ED
:10245000082001F099FEA063A06B98B1E0632946C3
:10246000656300F075F9A38B002043F48053A383C8
:1024700038BD436BAB42EFD000F092F8A36B002B5A
:10248000EAD1E4E74FF0FF30F2E7FFEC094C08B582
:102490002368EFF3118300238022EFF3108372B6D9
:1024A00082F3118883F3108806F064F82068743092
:1024B00000F064F97804002400220B4908B50B4BA6
:1024C0001A6080230A4A013B42F8041BFBD1094BE6
:1024D0000BB1AFF3008005F07FF900F08BFBBDE896
:1024E000084001F0C3BC00BFEFBEADDEE402002433
:1024F000E00000240000000038B5B0F90C100446DC
:1025000000F1640551B9134B186840F2EE23A0F2B4
:10251000EE206363C4E90E0000F01AF9E422002102
:10252000284602F04FFAE36B626B1344636723693A
:1025300023F00103C4F8F8304FF08073C4F8FC3086
:102540006FF01603C4F89C300023C4E95033F02325
:10255000A36738BD0C9A0008024B1868003818BFF2
:1025600001207047E402002470B50B4D2C6805F083
:102570007BFE48B1094E04F17400316829B1FFF7C0
:1025800051FF2B687433336070BD2968BDE870401B
:10259000743100F0F8B800BF78040024E40200248D
:1025A00010B50446806B20B1A38BDB0401D501F08C
:1025B000DBFDA38B23F48053A3830023C4E90E33F4
:1025C000636310BD10B4426E0C46002A34D11C4A1D
:1025D000126882421ED11B4B196819B923465DF857
:1025E000044B1847546602F17400D1F884309366A6
:1025F0004B68D366D1F888301367134BC1F8843029
:1026000080234B604FF08073C1F888305DF8044B35
:10261000FFF708BFD0F8F82041668266826FC26675
:10262000D0F8FC200267084AC0F8F82080228267B0
:102630004FF08072C0F8FC205DF8044B704700BF7B
:1026400078040024E40200244D260008154B30B520
:102650001C68B7B001F0AFFF056804F1740101A870
:10266000FFF7E0FEF02383F3118862B6636E204625
:102670009847EFF3118300238022EFF3108372B6A3
:1026800082F3118883F3108801F095FF0560A36E33
:1026900001A82293E36E0293236F239300236366C2
:1026A00000F06CF87804002438B50731836B0446D9
:1026B00021F007057BB1436BAB420ED9C36B2A46B1
:1026C0000021184602F07EF9E26B03462A44E263D9
:1026D000626B521B6263184638BD0023FBE7FFECB8
:1026E00070B506460C4D2C68FFF7B4FC304605F07B
:1026F00083FD48B1094E04F17400316829B1FFF738
:1027000091FE2B687433336070BD2968BDE870405A
:10271000743100F038B800BF78040024E4020024CB
:1027200070B5836B06460D46144623B1017F01F058
:102730000301FFF735FF2C44284624F00704611BF2
:10274000C6E90E55716300F003F8002070BD7047B4
:10275000C31C23F0030351B1014421F00300C01A4C
:10276000054A20F003001844834202D170476846AE
:10277000F5E743F8042BF7E7EFBEADDE01464FF077
:10278000010000DF70470A4601464FF0020000DFFB
:10279000704710B5846E01F4D873A0F8501001F0A2
:1027A0000101226822F4D87213432360826E936879
:1027B00023F001031943916010BD10B5EFF31184AC
:1027C00000238022EFF3108372B682F3118883F323
:1027D0001088FFF7DEFFE4B284F3118810BDFFEC30
:1027E000F0B5C36BEFF3118400228021EFF3108268
:1027F00072B681F3118882F31088996E0A6822F00C
:10280000010002F001050860DE6D5F6E710801EBEA
:102810004701B1FBF6F164293AD9013122F40040B5
:10282000490820F001009A6E10609A6ED16093F80A
:102830005610234A012902EA000233D142F4C06251
:1028400093F85700092802D0082830D179B342F410
:102850008052996E0A60986E93F85860416821F42E
:1028600040510EB141F400514160986E93F85960A7
:10287000816821F440711EB15E6F0EB141F4807128
:1028800081602A439B6EE4B21A6084F31188F0BD24
:10289000C1F3420221F00F0140F400400904090C89
:1028A0001143C0E7022908BF42F48062C8E7B3F8C9
:1028B0005610B1F5E06F08BF42F08052C9E700BF83
:1028C000FEE9FFEFC36B9A6E506AB3F8522040EAFC
:1028D0000242C0B20A600022A3F85220704710B52D
:1028E000C06BEFF3118400238022EFF3108372B6E4
:1028F00082F3118883F31088B0F8503039B143F077
:102900002001E4B2FFF759FF84F3118810BD23F4CE
:10291000907121F00101F4E7C36B9B6ED869C0F39D
:1029200040107047C36B9B6E99627047C36B9B6E80
:10293000D869C0F3C010704738B50446C06BEFF3D8
:10294000118500238022EFF3108372B682F3118881
:1029500083F31088B0F8503059B143EA020189B2CC
:10296000FFF72BFF204603F0F7FEEDB285F3118849
:1029700038BD23F080010904090CFFF71EFFF4E7BE
:1029800038B583685D6940F201139942EC6B05D05C
:10299000B1F5817F29D06FF0180038BD002A4CD0E6
:1029A00094F85630FBB1012B4FF480710CBF4FF4FB
:1029B000007300230B4394F858101046002914BFED
:1029C000402100210B4394F85910002914BF4FF007
:1029D000004100210B4343F030039360E16D02F0AE
:1029E00055F80020D9E71946E4E732B3936803F0BD
:1029F0003001302921D1002B01DA616FE9B113F4E4
:102A0000807117D013F4007F14BF0123022384F8D0
:102A1000563093681046C3F3801384F85830936897
:102A2000DB0F84F8593002F051F8E0652846FFF7D3
:102A3000D7FED6E784F85610EBE76FF01500ACE749
:102A400010B5C46B94F86000FDF768FF002294F89D
:102A500060001146BDE81040FEF7E4B938B5C56B1B
:102A600006492A4695F86000FEF7DCF9044618B9D5
:102A700095F86000FDF766FF204638BDA12A0008E2
:102A800010B5C36B144693F859302BB1836B9B6917
:102A900022B1002198472346184610BD0121F9E7CD
:102AA00010B51446926ED3699BB29806A4F85230C2
:102AB00013D5B4F8501089060FD5204603F082FED6
:102AC000B4F852301A0606D5B4F850301B0602D5B9
:102AD000204603F041FE002010BD13F00E0FEFD092
:102AE0000E231362ECE7FFEC38B5C46B00210546FA
:102AF000A36E1960C36B9A6E1E4B9A4204D14FF4B9
:102B000080221D48FDF7FAFDE06EFFF72FFB206FD6
:102B1000FFF72CFB606F08B1FFF728FBA26E94F85B
:102B20005810536823F47D5309B143F400535360A4
:102B30002846A26E114B11680B401360A26E94F8E8
:102B40005510936823F4E06323F0010343EA4163E3
:102B50009360FFF745FEA26E0020136843F0005318
:102B600043F00D0313600123A4F8500084F854309F
:102B700038BD00BF00480040E844025803BEFF33A0
:102B8000F8B50026C46B054684F85460EFF311874E
:102B900080223346EFF3108372B682F3118883F3F9
:102BA000108831462046FFF7F4FDFFB287F3118805
:102BB000EB6B9A6E0D4B9A4205D132464FF4802151
:102BC0000B48FDF79BFDA26E136823F00D03136005
:102BD000E06EFFF7ADFB206FFFF7AAFB606F18B147
:102BE000BDE8F840FFF7A4BBF8BD00BF00480040B7
:102BF000E84402587FB50B49684601F024FF0023E2
:102C0000094D1C4655F8041B39B15E1C303368462B
:102C10008DF8093003F0DCFB33460134082CF1D188
:102C200004B070BDE89B0008F49B0008704738B5FD
:102C30000A460169044629B14B69036103B943613E
:102C400000234B61637E207EC3F3C00520B9E0689A
:102C5000007C60F3C3036376CB6820464A819847C3
:102C6000637E65F3C303637638BD37B50446C06839
:102C70000A4680B10368B4F85E10009121469D6851
:102C800004F11D03A847002803DA237C43F0010365
:102C9000237403B030BD6FF00400F6E7F0B5047E96
:102CA00034B313466401144FE5592E0415D4AE0312
:102CB000124E48BF45F080652E40334343EA8143BE
:102CC00001F04F0143F0805343F40043E351437E4E
:102CD000C28023F04F0319434176037E0020084948
:102CE00003F1100201230C68934023430B60F0BDF5
:102CF00021462346D6E700BF000B084000F8F3FF4B
:102D00001C080840E0B590F818C0134E4FEA4C1765
:102D1000BD592B0417D4AB03104B48BF45F0806559
:102D20002B40134343EA814301F04F0143EA8C53A4
:102D300043F0805343F40043BB51437EC28023F0F1
:102D40004F0319434176007E0123054A834000204A
:102D500011680B431360E0BD0009084000F833FC24
:102D60001C0808404B790A79C97842EA0322437E5D
:102D700001F00301DB0601D5FFF7C4BFFFF78EBFEB
:102D8000417E027ECB064FEA42124CBF084B094BF4
:102D9000890713441A6822F4001248BF42F0805297
:102DA0001A60437E6FF3C30343760020704700BF71
:102DB00000090840000B084001F07F01F0B5EFF377
:102DC000118400238025EFF3108372B685F31188F8
:102DD00083F310888718FE7CC9B1062922D8012305
:102DE00003FA01F13140D1B10125AC460CFA05F3EB
:102DF00019429E4610D026EA0E06E4B2FE7484F311
:102E000011881C236B4322B160331844F0BD314656
:102E1000E9E703F59273F8E70135072DE6D1E4B24F
:102E200084F311880020F1E710B5C0B1B9B1EFF318
:102E3000118200238024EFF3108372B684F311888B
:102E400083F310884B7E097EC3F3001318440123DB
:102E50008B40C17C0B43C374D3B283F3118810BD84
:102E6000024B1868C0F30D20704700BF08080840E7
:102E7000037C61F34103037400207047EFF311807A
:102E800000238022EFF3108372B682F3118883F35C
:102E90001088074A136839B123F002031360C3B2E4
:102EA00083F311880020704743F00203F6E700BF68
:102EB0000408084008B540F02000064B064A186098
:102EC0001968890601D5013AFAD10320FDF72BFCD8
:102ED000002008BD10000840400D0300102208B576
:102EE000064B1A60064A1968C90601D5013AFAD19B
:102EF0000320FDF718FC002008BD00BF10000840AB
:102F0000400D030038B5036904460D4643B1437EC6
:102F1000DB0606D5007E8001FFF7CCFF23691BB9D5
:102F200038BDFFF7DBFFF9E729462046FFF77FFEB4
:102F3000F4E710B5EFF3118400238022EFF3108340
:102F400072B682F3118883F310886FF06D01E4B2DA
:102F5000FFF7D8FF84F31188002010BD084601F068
:102F600003B910B5182001F007F9044618B118226A
:102F7000002101F027FD204610BDFFEC70B5EFF3F6
:102F8000118500238022EFF3108372B682F311883B
:102F900083F31088037CDA060ED50A4B1B68DB0727
:102FA0000AD5094E0520346844F0010324F00104D9
:102FB000336001F0B5F83460EDB285F3118800207C
:102FC00070BD00BF0808084004080840064B074AC7
:102FD0001A6002F16042D2F8E83A02F6E82243F0C1
:102FE00004431360704700BF100B084018000860CE
:102FF000F0B5057E204F6D01EB5903F00043002A28
:1030000033D0C688541E3444B4FBF6F4467E1343D2
:1030100006F0030643EAC443012E184E08BF43EAF4
:103020004473EB51457E047E05F003056401012DD8
:10303000A35907D1124D2D68ED0554BF43F08053BD
:1030400043F0005323F08043033243F004439210D3
:10305000A351037E00201B0303F1804303F50123EA
:10306000824201EB800402DCF0BD0124CEE724683B
:1030700001301C60F4E700BF100908400009084057
:1030800008080840F8B50E6907460C465EB90B7E85
:103090002F495B015A5842F000625A50637E66F332
:1030A00082036376F8BDF3881BB94B7E43F040037F
:1030B0004B763289F588AA4208D3637E590605D437
:1030C00020460021BDE8F840FFF7B1BD637EAD1A90
:1030D0006FF38613002D63760ADDE388AB4207DCCD
:1030E00016D13379DB0703D5637E43F04003637663
:1030F000217E184B4A01D258EB1C92B2B2EBA30FBF
:1031000008DA154A012310688B4003431360C9E7AE
:103110001D46EDE733892A46316820461944FFF7FA
:1031200067FF637E43F004036376237E23B97B7CD1
:10313000052262F307137B743289F3881544ADB21C
:10314000AB423581AED8637E5A06ABD4B8E700BF38
:1031500000090840180908403408084030B5034603
:103160000B4C1A1D1B1A994200DC30BD2368C3F3B7
:10317000072502F8043C02F8035CC3F30745C3F3D8
:10318000076302F8025C02F8013C1346E9E700BF5E
:1031900000100840002882B006DD002303490433F4
:1031A0000A6898420192FADC02B0704700100840A9
:1031B00070B505460C4622695AB9237E1A485B0150
:1031C000195841F000611950637E62F382036376FF
:1031D00070BDD18819B92046FFF729FDEBE7E388D8
:1031E000124E5A1E1144227EB1FBF3F152014B43A1
:1031F000905943EAC1430C4900F0604003439351A6
:10320000237E5B015A5842F004425A50637E43F0D9
:1032100004036376237E002BDAD16B7C062262F3F3
:1032200007136B74D4E700BF000B0840100B084075
:103230001A4B024670B5C0688B60EFF3118500230E
:103240008024EFF3108372B684F3118883F310881F
:10325000537E13F008031DD114694B613CB9537EB2
:1032600013F00406C2E9041109D0204603E05069B6
:10327000416118465161EDB285F3118870BD13F0BC
:103280001004114603D0FFF7FDFE3046F3E7FFF7C9
:103290008FFFEAE76FF00F00EDE700BF000089FF46
:1032A000044B1A6842F400721A601A681207FCD5BF
:1032B000704700BF0408084038B5437E0446DB066B
:1032C0003AD5037E34495B015B581D0432D5EFF3D8
:1032D000118500238022EFF3108372B682F31188E8
:1032E00083F31088027E5201535823F4004343F0C5
:1032F00090435350294A037E590102EB4313186847
:103300008007FCD58B5843F002038B50207E800150
:10331000FFF7D0FD2249207E01220B68824023EA7C
:1033200002030B606FF06D012046FFF7EBFDEDB27D
:1033300085F31188002038BDEFF31185002380222A
:10334000EFF3108372B682F3118883F31088FFF7CE
:10335000A7FF027E13490A205201535823F4004369
:1033600043F090435350FDF7DEF9237E0E4A0221CD
:103370005B010B489950A2F54172136843F48063D6
:103380001360227E036802F1100101228A4023EAC1
:1033900002030360C6E700BF0009084008090840AF
:1033A0001C080840000B0840080B0840002210B51C
:1033B000044611466030FFF71BFE637C042262F373
:1033C00007136374BDE81040FFF700BE10B5044654
:1033D000FFF766FF027E0A200A495201535843F064
:1033E000804343F400135350FDF79DF9064A002033
:1033F000136843F480631360637E43F008036376CD
:1034000010BD00BF000B084004080840427E034680
:10341000D20601D4FFF7DABF027E064852011158E6
:1034200041F40011115000205A7E42F008025A76F1
:10343000704700BF0009084010B5EFF31184002366
:103440008022EFF3108372B682F3118883F3108821
:1034500029B1FFF795FCE4B284F3118810BDFFF7A2
:10346000D5FFF8E710B50269044622B9437E62F33E
:103470008203437610BD0021FFF7D9FB637E6FF313
:10348000820363765B07F5D421460248BDE810400D
:10349000FFF78EBE840D0024344A00202DE9F0474A
:1034A0001368334C23F001031360FFF703FDE0685A
:1034B00018B103682146DB689847FE232D4FDFF8DB
:1034C000C48000264FF0FF0A4FF01C09E3742375F7
:1034D00009FB06F53846C8F800A06FF06D01C8F882
:1034E00000A20136FFF70EFD05F1780305F59C7586
:1034F00007F1C40023446FF06D01254408F1200852
:103500005A781C3722F04C025A70FFF7FBFC6B799B
:10351000072E23F04C036B71DAD1174B4FF0FF32BB
:10352000002114481A604FF001125A600B23134A0D
:10353000136042F8043C52F8143C23F4FE6342F852
:10354000143C4022238A23F4706323F00403238273
:1035500002232372FFF7D6FB402200210848FFF721
:103560009DFBBDE8F047FFF731BD00BF04080840F0
:10357000840D0024E40D00241808084014080840B5
:10358000A80E0024080908402DE9F34700F59275BC
:1035900004466FF046012846FFF7B4FC04F16000D2
:1035A0006FF046010190FFF7ADFC94F83D31667D68
:1035B0006FF3C303019816F0600F84F83D3194F85F
:1035C00079306FF3C30384F87930238A23F0010341
:1035D0004FEA03534FEA135343F44053238205D079
:1035E00004F115012046FFF740FB44E0A37E94F868
:1035F0001CE094F817C0277E617EE27E4CEA072724
:1036000041EA032194F8169042EA0E220FFA87F855
:103610000BB20FFA82FEB9F10C0F28D80FF2040A90
:103620005AF829F059360008293700086F36000883
:10363000813700086F360008233800086538000815
:10364000653800086D3800088B380008E13500083F
:10365000E13500087736000894F810C01CF0040F1C
:1036600005D0022A03D116F0800F00D01FB3237CAF
:1036700043F001032374237CDB0716D594F87830DC
:10368000284692495B015A5842F400125A5094F865
:10369000793043F0080384F87930FFF797FE237CF4
:1036A00043F001032374FFF791FC0023A4F85E307C
:1036B00002B0BDE8F08706F01F06012E31D0022EC1
:1036C0000DD0002ED3D10029D1D1CCF30013CCF3EF
:1036D000400CA1774CEA430C84F81DC015E003F0C0
:1036E0007F03062BC3D8C3EBC3030A064FF00202C5
:1036F0004FEA83034CBF603303F5927323445B7E30
:10370000C3F3C00363770023A37704F11D01FFF720
:103710006FFC637C042262F307136374FFF756FCAB
:10372000A9E76777A777F0E7207C10F0040F9ED019
:10373000002A9CD106F01F06022E16D1002F7FF41E
:103740004FAF03F07F03062B3FF64AAFC3EBC30333
:1037500098000B064CBF603000F592702044FFF7D4
:103760000FFB2046FFF722FE85E7002E7FF438AFDF
:10377000012F7FF435AF034662F304132374F0E79F
:10378000207C10F0040F3FF472AF002A7FF46FAF7B
:1037900006F01F06022E12D1002F3ED103F07F0348
:1037A000062B3AD8C3EBC3030E064FEA83004CBF87
:1037B000603000F592702044FFF728FED1E766BB29
:1037C000012F03D140F010002074CAE7022F24D14A
:1037D00011F0FF0F21D1090AA37C0139042914D863
:1037E000DFE801F0030B0D0F1100012262F3030368
:1037F000A374237C43F02003C0E70222F6E70322F0
:10380000F4E70422F2E70522F0E76FF30303A37461
:10381000237C43F001032374EBE701077FF527AF17
:10382000DEE6F2067FF423AF53EA0E037FF41FAF08
:103830007F2F3FF61CAF637C03F00F03022B3FF496
:1038400016AF234A136823F4FE6343EA0C13136094
:10385000204B228A1340BCF1000F01D043F4827345
:1038600023827EE7F3067FF402AFB9E6217C4F079F
:103870007FF5FDAEF0067FF4FAAE58EA03037FF45D
:10388000F6AE012A7FF4F3AEAAE6227C51077FF55B
:10389000EEAEF2067FF4EBAE53EA0E037FF4E7AE32
:1038A00004F115012046FFF7E0F900287FF4E3AEAC
:1038B000228A18F0FF0F084B03EA020314BF43F4F7
:1038C000027343F480732382D5E600BF00090840E9
:1038D00000080840FBF0FFFFF7F0FFFF2DE9F74F6E
:1038E0008B498C4B0C681B688B4A03EA04001C4014
:1038F00002EA00020A6000F0A88025030ED5874B7B
:10390000874A1D68126815402D0C40F0A9801B687D
:10391000FF21844A1B0C002B40F09B8063030FD5D2
:103920007E4B7F4A1D6812681540ADB2002D40F0F5
:1039300009811B68FF217C4A9BB2002B40F0E2808A
:10394000002C10DA794A0121794D1368284623F0BA
:1039500001031360FDF770F9E86820B1026852694D
:103960000AB12946904721050AD57149C86818B19E
:1039700003681B6903B1984700216D48FDF75CF9A6
:10398000E2065CD56B4B1D6805F00F08B8F1060F19
:1039900055DC05F4F013B3F5002F00F07481B3F596
:1039A000402F00F07D81B3F5802F48D1C5F30A1573
:1039B000002D44D05E4B1C2606FB08369946D6F8EF
:1039C0003471002F40F04A8196F83CA1BAF1000F03
:1039D00040F04081D6F82C717B7C03F0F003102B73
:1039E00040F03881402D2B4607F11D00A8BF402331
:1039F0001FFA83FB00935946FFF7B0FB009BE81AC0
:103A0000FFF7C8FB96F83D3102226AF3820386F87D
:103A10003D317B7CA7F85EB062F307137B7403F043
:103A2000F003202B02D13846FFF7AEFD1C2303FB29
:103A3000089898F83D316FF3820388F83D313E4B8A
:103A40001C4200F04581FFF727FD002003B0BDE8D0
:103A5000F08FD80701D5106811605B0820325AE753
:103A60000026DFF8C080DFF8D8A0DFF8C4B0EF0789
:103A700037D54FEA461959F80870DAF800301F4078
:103A8000F8071BD5012316F0FF0049F808309BF812
:103A900011302BD103F0F003602B0FD12748FFF733
:103AA000E1FC9BF83D3113F0040107D1FFF78EFADA
:103AB0009BF8113061F307138BF81130B90702D569
:103AC000022349F808303A070BD59BF8113003F070
:103AD000F003202B02D15846FFF756FD082349F882
:103AE00008306D0806F10106C1D117E703F00F0396
:103AF000022BE3D11C2303FB00B000F59270FFF70B
:103B0000B1FCDBE7DF0700D511605B08203214E76A
:103B100014000840180008400AFCB0F818080840D3
:103B20001C080840080B0840080908400408084021
:103B3000840D00242000084000108000A80E0024FE
:103B4000140808404FF0600B4FF00008EE0773D5E3
:103B50006D4A4FEA481A6D4BDFF8C0911B68166832
:103B600001225AF8097002FA08F23242009218BF94
:103B700043F080031F4017F0010301933CD0009BEA
:103B80005FFA88FC1C2126EA03065F4B1E600123B6
:103B90004AF809305E4B01FB0C3118465A7C603103
:103BA000BCF1000F4FD102F0F002502A0ED1FFF706
:103BB00069FA574B93F8792012F0040106D1FFF708
:103BC00005FA534B5A7C61F307125A74197C880624
:103BD00012D5DFF84CC16FF345119A7CDCF8000078
:103BE00002F00F0E6FF3030200F0700040EA0E10B7
:103BF000CCF8000019749A743A0702D508234AF8E1
:103C00000930FB0607D5424800EB0B01FFF73AFAF3
:103C100010234AF8093038060ED5019B4BB9009B9A
:103C20003B4826EA0306384B00EB0B011E60FFF70A
:103C300029FA80234AF809306D0808F101080BF1D0
:103C40001C0B83D17CE602F00F02022AD4D1FFF7CD
:103C500019FAD1E72846FFF79DFAE7E63889FE888A
:103C60003B68361A1844AE42A8BF2E461FFA86F8A3
:103C70004146FFF773FAA81BFFF78CFA398988448D
:103C8000A7F80880DBE6224B5B7C03F0F003102BE7
:103C90007FF4D5AE1F4A136843F080631360CEE60D
:103CA0001B4D082105F11500FFF758FA95F915305D
:103CB000002B0ADB2A7FEB7E53EA022305D06B7CC4
:103CC000012262F307136B74B9E66B7C0222F8E7FA
:103CD000A3047FF505AE104A1368A2F6F40223F49C
:103CE000FF6323F0070343F04003C2F8F438D2F82F
:103CF000F83743F48073C2F8F837136823F470532D
:103D000043F4C0531360EBE5340808401008084042
:103D1000840D0024000B08400009084008090840F1
:103D20000408084038B50B4CE060214603681B6866
:103D30009847054618B10023E360284638BD752032
:103D4000FCF700FE01212046FFF798F802232372BA
:103D5000F3E700BF840D002470B50446EFF311852E
:103D600080260023EFF3108372B686F3118883F365
:103D70001088FFF791FBEDB285F311880E4D2046B8
:103D8000236829465B689847EFF311840023EFF31B
:103D9000108372B686F3118883F310887520E4B21D
:103DA000FCF7BCFD00212846FFF768F80020E8601A
:103DB00084F3118870BD00BF840D002470B5284DB8
:103DC000E86808B1FFF7C8FFEFF3118600238022EF
:103DD000EFF3108372B682F3118883F31088002406
:103DE00000211F48F6B2FFF749F875202C72FCF746
:103DF00095FD214622467520FDF714F8FF23194A48
:103E00004FF4806013602032C2F8E0311360C2F8D2
:103E1000003220321360C2F8003220321360C2F840
:103E2000003220321360C2F8003220321360C2F830
:103E3000003220321360C2F800324FF0FF320A4BDA
:103E40001C605C605C62DC609A60FFF733F8FFF72F
:103E500045F86B7C64F303036B7486F3118870BDC3
:103E6000840D00240809084010080840F8B5944B58
:103E70001A6822F0007242F080721A601A685101CA
:103E8000FCD59048FEF772F98F48FEF76FF98F481E
:103E9000FEF76CF98E4FFFF791FF8E4B4FF4F472E3
:103EA000002118463E4600F08DFD8B490246034630
:103EB0004FF01C0E4FF0400C42F8601B0021426096
:103EC000FE228066C27402750246C0F82C010EFB09
:103ED00001041C325764106504F1780594F87940A8
:103EE00044F010046C70CCB2013182F85C4064F094
:103EF0007F04072982F848406C786FF301046C70E6
:103F0000A2F84AC0E3D100221C274025D1B2C3F851
:103F10002461C3F830011C3383F8201183F80C119D
:103F200007FB0201013291F83D41072A6FF30104BA
:103F300081F83D41A3F80E51E8D100226749752070
:103F4000FCF770FF002803DABDE8F840FFF736BF42
:103F50008022634D634B644F1A602A683E46634C6F
:103F600042F040022A600320FCF7DDFB3B68002B97
:103F700001DB013CF7D1012333605C4B3268D2078F
:103F800001D5013BFAD103200024FCF7CCFB584BB0
:103F90004FF4803214201A6000F0C2F8554A3220E3
:103FA000136843F0C00313602B6823F0005343F001
:103FB00080432B6000F0B4F84F4B4FF480601C60DE
:103FC000A3F5C0631A68A3F2DC7322F4C052C3F8ED
:103FD000DC27D3F8DC2742F00302C3F8DC2740F2E9
:103FE00001221A6002F592025A604932C3F8E020B9
:103FF0004932C3F8E4204932C3F8E8204932C3F813
:10400000EC204932C3F8F0204932C3F8F420FEF71F
:1040100051FFFEF763FF394B4FF0FF32FF211C6069
:10402000F03343F8EC4C43F8CC4C43F8E82C344ADA
:1040300043F8E44C186820330028B4BF4FF0084020
:10404000002043F8200C43F8104C43F8181C93420E
:10405000F0D12C4B0022FF202B491C682033002C70
:10406000B4BF4FF00844002443F8204C43F8102C10
:1040700043F8180C8B42F0D1244925480A604FF0D0
:10408000FF32244B1A600268234B22F07F4222F455
:104090007C0222F47C4222F0FF021343812203605F
:1040A0001E4B0C480B6000210E4B1A60FEF7E6FE1B
:1040B000FFF7F2F97520BDE8F840FCF743BC00BFFC
:1040C0000C4802580BAC08000CAC08000AAE090002
:1040D000649C0008840D0024489C0008DD3800081A
:1040E0000C0008400800084010000840400D030084
:1040F0003800084000000840000E08401008084042
:10410000E0090840000B0840E00B08401800084098
:1041100014000840040008400AFCB0F810380C00F5
:1041200082B0002345F261610093009A824201D37C
:1041300002B070470193019A8A4203D9009A013272
:104140000092F2E7019A01320192F4E70A46014631
:10415000034808B500F056F8024B186008BD00BFD0
:10416000809C00086C0F0024024B0146186800F088
:10417000C0B800BF6C0F0024024B0146186800F065
:1041800014B900BF6C0F0024024B0A4601461868A0
:1041900000F069B96C0F0024024B0146186800F06A
:1041A000CBB900BF6C0F0024F8B50D461646044687
:1041B00000F055F8AA1905F10F036168082523F0EE
:1041C0000F0322F00F024FF00047D01A01441038BD
:1041D000C4E90113194641F8085BA6687760986046
:1041E000A2F108004D60E060204642F8085C9B6840
:1041F000E2683B43536000F054F82046BDE8F840C5
:1042000000F04DB801F10F03A2F5A27223F00F03E5
:1042100011444FF4A272184670B5CC1A00211D4605
:1042200003F5A27600F0CEFB034600F1200200F574
:10423000A071A2F110009A6110321033D8618A4245
:10424000F7D1284600F007F8284622463146FFF706
:10425000ABFF284670BD0122002100F0B8BA10B5AE
:104260000446FEF779F908B1002010BD04F0A6F964
:104270000028F9DB04F02CF850B1204604F0C8F80F
:10428000C043C00FF1E700F096F90368002B04DD8E
:10429000204604F089F80028F5DB0120E5E704F06A
:1042A000FDB838B5054608680C4600F015F8421C04
:1042B00005EB001005EB0212836923B1196811B1F7
:1042C0002068814205D39460C4E9023203B1DC6006
:1042D00038BD1A469B68F0E7B0F5800F07D2030996
:1042E0000020012B00D8704701305B08F9E712204D
:1042F000704770B505460C46A9B1FFF7B0FF98B9F5
:10430000EFF3118300228021EFF3108272B681F364
:10431000118882F31088D5F84021DBB22260C5F8FD
:10432000404183F3118870BD54F8043CA4F10801A6
:1043300023F0004344F8043C54F8083CCA18506881
:10434000002813DBCB58D2E902061344B06008B151
:10435000D668C660126854F8080C104444F8080C7B
:104360005A6802F0004202435A601A4654F8043C6C
:10437000CB1A5868002810DBD3E90210816009B11C
:10438000D868C860196854F8080C08441860516867
:1043900001F000410143516019462846FFF781FFB3
:1043A0002846BDE87040FFF77ABFF8B506460F46CD
:1043B000EFF3118300228021EFF3108272B681F3B4
:1043C000118882F310880022D0F84041DBB2C0F897
:1043D000402183F31188002C3AD1002F36D007F109
:1043E000170525F00F05AF4230D83046FFF737FFED
:1043F000B5F5800F33D22846FFF76EFF06EB0010AD
:10440000846904B32268A368AA422AD3E26893604D
:10441000A3680BB1E268DA602368581B0F280CD937
:104420002344611960514D6025605A6802F00042D2
:10443000024330465A60FFF734FF6368083443F0A4
:10444000004344F8043C3046FFF729FF2046F8BDFE
:104450002568214630462C46FFF74BFFBBE712206C
:10446000CCE71C46CDE76FF0004399422DE9F047B9
:104470008046154602D30020BDE8F087C1F1000A4E
:1044800031EA0A030AEA0107F5D1102F04D81146D0
:10449000BDE8F047FFF789BF02F10F03790023F071
:1044A0000F03C9182CBF012200229D428946E2D881
:1044B000002AE0D1FFF779FF06460028DBD07C1EFA
:1044C0004046FFF7CCFEA6F10801344404EA0A0492
:1044D000A64223D0A21B56F8083C0F2A0B4497BFD4
:1044E000E419A4F10807A4F10807A21BD81B38603F
:1044F00042F00040786046F8082C4A6822F00042FA
:104500004A605A68386802F00042024340465A60E6
:104510003B68A3F10809FFF7C4FE394605F117020D
:1045200022F00F02914502D9404600F012F84046B1
:10453000FFF7B5FE20469FE713B50191FFF735FF62
:10454000044618B1019A002100F03CFA204602B05E
:1045500010BDF0B40C680B4606460D1969680029B9
:1045600019DB1859D5E902172844B96009B1ED687B
:10457000CD601D6899181C59AD1A25449D504A609C
:104580001A6044689B5804F000441C434460304661
:10459000F0BCFFF786BE02F110018C4209D39918D6
:1045A000A41A9C504A601A609B5843F000436B6009
:1045B000EEE7F0BC704708B500F08AFA143008BD89
:1045C00038B5012204460021283000F000F94FF0F0
:1045D000FF35002304F12C002563C4E9413300F0CA
:1045E00031F804F17400A56700F02CF804F1BC0068
:1045F000C4F8C050BDE8384000F024B838B50446CF
:104600002830FCF762FF0023C4F80831D4F80451C5
:104610006DB904F13400FCF758FF04F17C00FCF79D
:1046200054FF04F1C400BDE83840FCF74EBF2846F3
:1046300050F8083BC4F80431FCF747FF2846FFF761
:1046400093FDE3E710B5012204460021083000F095
:10465000BEF84FF6FF7363810023E36010BD70B5B1
:10466000044603F0ABFF0546B4F90A30834209D093
:1046700004F10806304603F097FE0028FADB012318
:10468000658101E0E3680133E36070BDC368012B1D
:1046900002DD013BC36070474FF6FF730830438073
:1046A0000023436003F0FABE002303600B6813B9D4
:1046B0000860486070474B681860FAE70B6802466C
:1046C0008BB180B1834208D11A680A604A689A4265
:1046D00009D100234B6070472BB118461B689342E9
:1046E000FAD100F00BB8704703682BB11A6802606A
:1046F00002B9426000221A60184670470A680368CF
:1047000052B14BB14A689A424FF0000215BF196886
:104710004860016002601A60184670470023036019
:104720004B6843600A6812B90860486070471860B7
:10473000FBE7002343600B68036013B9C1E9000085
:104740007047586008607047D0E9003232B90B609A
:1047500033B94A600023C0E9003370471360F7E7BC
:104760005A60F7E70F4C054683B5084611462268A4
:104770004AB90D4E0D4FDFF83880DFF83890BE4251
:1047800004D101232360A847FCF7DEFD56F8043B63
:104790004345F4D34B45F2D2CDE900019847DDE91A
:1047A0000001ECE7700F0024E09F0008E09F000884
:1047B00000000008E09F000830B1B2F5004F03D2BE
:1047C00012B20280002070476FF01500704708B5E4
:1047D00030B1B2F5004F03D212B20280002008BD02
:1047E000FFF7E9FE162303604FF0FF30F7E71F29BC
:1047F0009FBF012303FA01F103680B439ABF0360D3
:1048000000206FF0150070471F299FBF012303FA96
:1048100001F103688B439ABF036000206FF015001D
:10482000704700230360184670471F299DBF036827
:1048300023FA01F101F001006FF0150070470FB489
:104840001FB506AB53F8041B0191039303F038FD29
:10485000039A4C30019900F06BF805B05DF804EB59
:1048600004B0704770B50446C0B100F03DF90026B1
:10487000D4F8DC5025B9204600F03EF9304670BD32
:10488000B5F840309B0707D50121284600F008F80D
:1048900036EA200628BF06462D68EBE70646EDE718
:1048A000F8B5436805460F46002B3EDBB0F84030B4
:1048B0009B073AD5FFF7D3FE2C69FCB1AE69B44231
:1048C00007D12846FFF7E2FEAC692969641A204641
:1048D000F8BDEB699C4226D1361B324621466868FA
:1048E00003F05AFB00280DDA95F8423043F002033A
:1048F00085F84230FFF75FFE046864422846FFF700
:10490000C5FEE4E70444361A0FB1002EE5DC2B693E
:104910002644AB61B442D4D0AB695A1CAA6114F8E6
:10492000012B1A70F6E70024E8E76FF00804CEE7E1
:1049300030B587B004460D46014602A8019200F04A
:1049400027F82046FFF78BFE2946019A02A800F0BF
:10495000D7F805462046FFF799FE284607B030BD38
:104960000121C068FFF79CBF38B504460D46E168D9
:10497000284600F0CFFD013003D0A3680133A360C7
:1049800038BDFFF718FE0368042BF0D0F8E7FFEC02
:10499000094B03600B6963B1B1F84030074A13F467
:1049A000807F074B08BF134643600023C0E90231F4
:1049B0007047034BF8E700BF6949000861490008E8
:1049C000FD4A0008F0B58AB3C707034638D5013A57
:1049D00003F8011B012A27D941EA01259E07ADB240
:1049E0002BD0023A23F8025B032A18D95C0745EA68
:1049F000054616BF141F144643F8046B224603EB0A
:104A0000040C072A13D8E2086FF0070707FB0242DD
:104A10003C40032A234484BF043A43F8046B012A30
:104A200002D9023A23F8025B02B11970F0BDACEB77
:104A30000207083AC7E90066E3E7032AD6D8F0E799
:104A4000012AC9D8F1E7421E11F8013B02F8013FE3
:104A5000002BF9D1704703461A460133117800291B
:104A6000FAD1101A704702440139034610B5934237
:104A700007D011F8014F03F8014B002CF7D19342F6
:104A800000D110BD03F8014BF9E7FFEC0E4B0022FB
:104A900030B5D3E900548C4209D1C561836823F451
:104AA000805323F00F0319438160002030BDA942D9
:104AB00002D1C1612146F1E7013208331F2AE8D152
:104AC000C1614FF48051E9E7889C0008C0697047D4
:104AD0001FB5002001A903F00DFC0028ACBF02980F
:104AE000002005B05DF804FB10B50446204603F035
:104AF0005BFC0028FADB10BD03F0D0BC002070473F
:104B00002DE9F04F04468DB09346002591F800A0A2
:104B1000BAF1000F00F0F983BAF1250F08D04B1C51
:104B200002932368514620460135D94698472CE127
:104B300091F801A08B1CBAF1250F0293F1D0002748
:104B40000A223E46B846B8F13F0F4BD8BAF12B0FB8
:104B50003DD014D8BAF1200F3BD0BAF1230F3ED08C
:104B6000AAF13003DBB2092B4FD818F4807F12BFB3
:104B700002FB073748F0800802FB063607E0BAF16F
:104B80002D0F29D0BAF1300FEAD148F00108029B6D
:104B900013F801AB0293BAF1000FD4D1AAF1450387
:104BA000022B78D80AF1200A48F400585FFA8AFAF2
:104BB00018F4807F08BF0627BAF1650FF9B240F0FC
:104BC0008A80013148F48048C9B200228BE048F065
:104BD000020848F00408DAE748F00808D7E748F088
:104BE0001008D4E7B8F5007FBAD3BAF17A0F2DD008
:104BF000BAF1740F2AD0BAF16A0F24D128F4806870
:104C00001FFA88F848F42068C1E7BAF12A0F10D1DA
:104C100018F4807F5BF8043B02D023EAE377B6E721
:104C2000002BA7BF48F080081E465E4248F0880867
:104C3000ADE7BAF12E0FD8D118F4807F40F065832C
:104C400048F48078A3E7BAF16C0F0BD118F4007F19
:104C500018BF48F4006828F480681FFA88F848F400
:104C6000007894E7BAF1680F0BD118F4806F18BF81
:104C700048F4006828F400781FFA88F848F480683F
:104C800085E7BAF1700F02BF28F420681FFA88F890
:104C900048F4007882E7AAF16503022B88D9BAF1BB
:104CA000630F00F0AE810AF0DF03532B40F0D9818F
:104CB000D946A04B59F804ABBAF1000F08BF9A4689
:104CC00018F4807F504614BF39464FF0FF3100F092
:104CD00040FC07469DE1BAF1660F7FF476AF0A46C5
:104CE00048F400480F210BF107090F2906A829F005
:104CF000070928BF0F21B9EC020B00F039FB9DF822
:104D00001C3003F00902012A42D018F0020F42D1F0
:104D100018F0040F0CBF4FF0000A4FF0200A13F0F8
:104D20000C0F44D0BAF1000F14BF04230323B34285
:104D30000CDA18F0080FA6EB030608D137462368F3
:104D4000202120469847013FF9D135440026BAF189
:104D5000000F04D0236851462046013598479DF83E
:104D60001C3008F40058744F13F0080F734B18BF31
:104D70001F46A5EB070A0AEB070517F8011B69B9DF
:104D80003746002F40F0BB823544CB460299BDE642
:104D90004FF02D0AC3E74FF02B0AC0E7B8F1000F20
:104DA00001D02039C9B2236820469847E3E7C3B24F
:104DB000DDF818B00193624B019A18EA030F1AD17B
:104DC000134606A904330B44019919B113F80119CC
:104DD000302929D01BF1040F2BDB934529DABBF1D5
:104DE000000F48F4004802DB019B9B4524DA0BF1DD
:104DF0000107019BDF1B0FFA88F3002B0393B6BF5B
:104E00002BEAEB7305230133BAF1000F00D0013315
:104E1000A7B17A1C1344B342B4BFF61A002618F0A7
:104E2000090F1BD1334614E00199481EC1B201910C
:104E3000CAE7019B5F1EDEE70027DCE718F0100FD2
:104E400018BF0133E7E72021204604939047049BD5
:104E5000013B2268002BF6D135441E46BAF1000F03
:104E600004D02368514620460135984718F0080FB2
:104E70000CD1B24604E00AF1FF3A302120469847AF
:104E80002368BAF1000FF6D135445646039B002B38
:104E900058DA2BEAEB739A4603930CAB5B44133B53
:104EA0000593ABEB0A03019A794293423CBFCAF1E6
:104EB0000003059A0AF1FF3A2CBF3023D35C6A1C29
:104EC0008A450492226824DA0399FF430398013942
:104ED0008742A8BF0F4618F0100F07D0791C05D1E4
:104EE0002E21204601939047049D019BBB450AD18A
:104EF0009DF81D20352A1AD805D19DF81C2012F0E6
:104F0000100F08BF3123226819462046013590470B
:104F100036E7194620469047BAF1FF3F05D1AB1C52
:104F20002E212046049323689847049DB9E7312336
:104F3000E9E700BF889D0008809D0008849D000867
:104F400000C0FFFF9DF81D10204631291EBF9DF8AF
:104F50001C3023F010038DF81C3023689847002F75
:104F600023683DDD02354FF0010A2E212046984787
:104F70005745236823DA18F4005F2368204614BFDE
:104F8000452165219847BBF1000F04DB32D19DF824
:104F90001C30DB062ED5CBF1000B2D2123682046DB
:104FA00098473021BBF1090F26DC2368204698473B
:104FB00023680BF13001204604359847E0E6019A5A
:104FC0002046013552458ABF0CAA302152440AF1CD
:104FD000010A88BF12F8131C5FFA8AFA9847C7E7DC
:104FE00018F0100F01D10135C5E72E2120460235FA
:104FF0009847C0E72B21D1E70131ABF10A0BC9B2C9
:10500000D0E7D94601270DF1180A59F8043B8DF86D
:10501000183018F0080F15D1B04605E008F1FF3838
:1050200023682021204698474745F7D3BE42A6EB88
:10503000070334BF00221A46C3F1000338BF002320
:1050400015441E440AEB0708C24501D13D4497E6CA
:10505000236820461AF8011B9847002EF4D0013E21
:10506000F2E7BAF1640F08F4206302D0BAF1690FD5
:1050700077D1B3F5206F61D10BF1070929F007094A
:10508000F9E80201002828F4805B71F100032BF09D
:10509000100B06DA40424BF4805B61EB41011FFAD2
:1050A0008BFB1BF4807F04D01FB950EA010300F092
:1050B000B4800DF118080A23424600F02BF9A0EB4A
:1050C00008085FFA88F81BF4807FCDF8048000F0B0
:1050D000A6802BF0010AB8451FFA8AFA80F2A28056
:1050E00044F21002FBB20BEA0202102A03D12BF0A9
:1050F000110A1FFA8AFA1AF0100F00F09D800CAA0C
:10510000424412F8192C302A40F08E802AF4C04A0A
:105110002AF0100A1FFA8AFA1AF0080F40F09D8050
:105120001AF0010F05D0B34280F2B680F71AF3B23D
:105130004744A3EB050B5FFA8BFB89E0D94618F4D3
:10514000007F59F8043B18464FEAE3719AD118F4EE
:10515000806F97D018F4006F0CBF18B258B2C11707
:1051600090E7B3F5206F1AD10BF1070929F0070971
:10517000F9E8020128F0060BBAF1580F1FFA8BFB71
:1051800037D0AAF16F03DAB2092A3AD8092B38D8F6
:10519000DFE803F04126373737371737372818F459
:1051A000007F0BF10409DBF8000001D00021E1E7EA
:1051B00018F4806FFAD018F4006F0CBF80B2C0B240
:1051C000F4E728F0160B0A231FFA8BFB1BF4807FF1
:1051D00003D017B950EA01021FD00DF118086BE790
:1051E0004BF0100B1BF0100F01D04BF4804B102331
:1051F000ECE718F0100F01D04BF4C04B4FF40473E0
:10520000E4E7236820462521023598472368514664
:1052100020469847B9E50823D8E7B84653E7434600
:10522000DA4668E7434666E71AF4804F01D1013356
:1052300000E00233DBB26FE741F206021AEA020F26
:105240003FF46AAFF3E723682021204601359847F1
:105250000BEB0503DBB2B342F5DBB342B4BFF61A86
:1052600000261AF0100F24D02368302120469847DA
:105270001AF4804F12D10135BA46D0452BDBA7EB8B
:105280000800B845C8BF00200544B8F1000F29D177
:10529000019B2B441D4673E547464AE71AF4005F1D
:1052A00005F10205236814BF58217821204698474C
:1052B000E2E741F206031AEA030FDDD01AF0020F0B
:1052C00005F10105236814BF2B2120211AF4805F0A
:1052D00018BF2D21EAE72368302120460AF1FF3A62
:1052E0009847CAE708F1FF330CAA204652FA83F226
:1052F0005FFA83F8236812F8181C9847C5E72368FB
:1053000020212046013F98473BE528460DB0BDE8E7
:10531000F08F00BF2DE9F84F13F400790746884657
:1053200016461CBF23F400734FF001091C46DD171D
:105330003846414622462B4603F050FD092ABA461C
:10534000C3460746884609DC3032AB4506F8012BD8
:1053500008BFA245ECD23046BDE8F88FB9F1000F86
:1053600001D03732F1E75732EFE7FFECC2925D7DB3
:105370002DE9F74F10EE904A07460E4614F0004410
:105380001CBFB1EE400B0124B5EE400BF1EE10FA5C
:1053900016D16FF00401431D44F00204091A3020B5
:1053A000CA18964209DC0025BB19002230465A7102
:1053B0003C713D6003B0BDE8F08F03F8010BEFE7EF
:1053C000B4EE400BF1EE10FA02D744F00804EAE71D
:1053D000B0EEC07B9FED446BB4EE467BF1EE10FA6D
:1053E00002DD44F00404DEE79FED417BB4EEC70B21
:1053F000F1EE10FA5DD5424908230F2501209FEDFB
:105400003E6B91ED107B20EE077BB4EEC67BF1EE98
:1054100010FA05D500FA03FCB0EE470BA5EB0C051E
:10542000013B0839B3F1FF3FEBD132B125EAE57317
:1054300001331A449642A8BF1646324B03EBC6030B
:1054400093ED007B30EE070B9FED2B7BB4EEC70B8B
:10545000F1EE10FA04DBB2EE047B013580EE070BAF
:1054600007F10508DFF8A4A0DFF8A4B051EC100B99
:1054700003F0CEFC6FF0040389460090DB1B019320
:10548000019B43449E428FDD52465B46009849464D
:1054900003F0A4FC00F1300C5946504600929946A6
:1054A0000A22002308F801CB03F098FC82468B46C1
:1054B000E6E7154908230F25012091ED106B20EE3A
:1054C000066BB4EEC76BF1EE10FA04DB00FA03FCD6
:1054D000B0EE460B6544013B0839B3F1FF3FECD118
:1054E000A3E700BFAFF30080FFFFFFFFFFFFEF7FE9
:1054F00000003426F56B0C430080E03779C341434C
:10550000589E0008909D0008109E00080080C6A4C8
:105510007E8D030037B50A468DF8070004460D4618
:105520000DF10700012100F021F8002804DC4FF004
:10553000FF34204603B030BD0A2CFAD195F8423032
:105540005B07F6D501212846FFF7AAF90028F0DA13
:10555000EDE70246014410B58A42134601D1181AFC
:1055600010BD1C780132002CF6D1F8E7F8B50446DE
:105570000F4616463AB9FFF71EF84FF0FF340923DD
:1055800003602046F8BDB2F840309B0706D4FFF711
:1055900012F8092303604FF0FF3418E013693BB998
:1055A0000A460146706802F0F7FC041EE9DAF2E7E9
:1055B0001046FFF754F8304600F031F800282CDA96
:1055C0004FF0FF343046FFF761F8002CD9DA96F837
:1055D000423043F0020386F84230D2E7D6E9053282
:1055E0009B1A511EBB4228BF3B46FF1AE818A8422F
:1055F0000ED1134472699A42B36105D80021304636
:10560000FFF74EF90028DBDB002FE7D12C1BD9E791
:1056100015F801CB01F801CFE9E72546F4E710B50D
:10562000044630B9FEF7C7FF092303604FF0FF308F
:1056300010BD0369F3B1FFF712F8E06922699042E7
:1056400013D0A36994F843101B1A2046C4E906221C
:105650000022591A84F84320012200F00DF8002896
:1056600003DA2046FFF712F8E0E72046FFF70EF8CE
:105670000020DDE71846DBE770B504460D46164608
:10568000FFF7CDFF002802DA4FF0FF3070BD204653
:1056900000F010F80028F7DB002332462946606846
:1056A00084F8433002F067FB01304FF0FF3018BF41
:1056B0000020EBE7026932B1B0F840309B0702D519
:1056C0000121FFF7EDB800207047022901D100F059
:1056D00007BB704708B5094B1B7813F0FD0F02D0CC
:1056E0004FF0FF3008BDC307FAD500F02FFB0028AC
:1056F000F6DB034B02221A70F4E700BF750F00249B
:105700007C14002410B5084C606003F005FDFFF721
:10571000E1FF002804DB054A13680133136010BD64
:105720006368002BF1D1FAE780140024780F00247D
:1057300008B5FFF7E7FFA0F120035842584108BD24
:10574000034B1B78022B01D100F026BB704700BF32
:10575000750F002410B5124C236801331ED0114B75
:105760001A68053B9A4219D90F4B9B6803F10063F5
:1057700003F500339A4211D203F028FD03F0F6FC42
:1057800000F0D8FA03F000FD03F0C8FC204603F057
:1057900037FD2046BDE8104003F0DCBD10BD00BF62
:1057A0000000020804000208860000240C4A0023BE
:1057B00010B5144652F8231021B152F823100139C4
:1057C00042F823100133042BF4D1064B1B7833B974
:1057D000A36823B9022003F0ABFD3223A36010BD00
:1057E00080140024740F0024024BD860DA68002A69
:1057F000FCD17047801400242DE9F04FDFF81083AE
:105800008DB00025BA4E0746DFF808A388F800508F
:105810000495B46803F096FCCDF80480B0460FB14F
:10582000CAF80070B34B4FF0FF36CAF808509946DB
:105830001D70012003F072FD27B1DAF80030002B53
:1058400000F02B820020FFF75DFF0590059B002BE9
:10585000F2DB012003F058FD059B213B102BE8D81B
:1058600001A252F823F000BFAD580008C358000849
:105870002B590008335800083358000833580008E3
:10588000BF590008335800085D5A0008195B00082A
:10589000635B0008BF5B00080D5C0008DF5B00086D
:1058A00033580008775C0008835900080220FFF78E
:1058B0003FFF002800F00382049B43F001030493A0
:1058C0005FE04FF47A70FFF71DFF051EC0F2F7810D
:1058D0000220FFF72DFF002800F0F181681E042848
:1058E00000F2ED81DFE800F0030B0E11140004213B
:1058F0008148FFF725FF049B43F00203DFE7042103
:105900007B48F6E704217D48F3E704217C48F0E773
:105910001C252846043503F093FC0421079007A8B2
:10592000FFF70EFF2C2DF4D1E5E70220FFF700FF73
:10593000002800F0C481049B03F00303032B40F014
:10594000BE8101230025022089F8003003F0DCFC31
:1059500003F047FC284603F059FC044610BB022024
:1059600089F8000003F0DAFCD8F80830A3421ED80A
:10597000049B002443F0040389F800400493CAF810
:105980000840019B1B781BB95E4B019A1B78137072
:1059900041F21203022107A80027ADF81C30FFF7DF
:1059A000CFFE46E72846013503F036FCD2E7204615
:1059B00003F046FC013040F055810434D4E7322036
:1059C000FFF7A0FE051EC0F27A8115F0030240F039
:1059D00076812B19D8F808108B4200F27081B5F54A
:1059E000807F00F26C81DFF820B15946AA4214D1C1
:1059F000C820FFF79DFE002800F0618124B9424BCA
:105A00004FF0FF321E681A6025F003052544AC42B2
:105A100015D1049B43F0080351E74FF47A70CDE9A8
:105A20000221FFF76FFE059005980028C0F247811C
:105A300005980399029A01F8010B0132D6E7DBF8C9
:105A40000010204603F0F6FB204603F0F9FB5BF85C
:105A5000042B904240F006810434D8E70220FFF77F
:105A600067FE002800F02B8100252F462EE0002D38
:105A700039D1711C37D00796244A5168C1B9944670
:105A80000B46082003F0010E5B08BEF1000F07D0A3
:105A900083F06D4383F4380383F4034383F02003DE
:105AA0000138EFD101314CF8043BB1F5807FE7D1EB
:105AB00007A8002110F8013B01317B400429DBB22B
:105AC00052F8233083EA1727F4D10435D8F8083088
:105AD000AB42CCD8042107A80797FFF731FE049BFF
:105AE00043F01003EBE6284603F0AAFB0790C3E758
:105AF00086000024740F0024A09E00088A00002461
:105B00008E0000247C1400247C1300247C0F0024CD
:105B1000750F00248014002407AB4FF0000B1D46C6
:105B200064200293FFF7EEFD0028C0F2C8800BF15D
:105B3000010B029BBBF1040F03F8010BF0D1079B93
:105B400002200293FFF7F4FD002800F0B880029BCA
:105B5000184603F07FFB594607902846FFF7F0FDF3
:105B60000FE707AB4FF0000B1D4664200293FFF7D1
:105B7000C9FD0028C0F2A3800BF1010B029BBBF111
:105B8000040F03F8010BF0D1079B02200293FFF7EB
:105B9000CFFD002800F09380029B9A0740F08F8091
:105BA000082B00F28C80184603F0A8FB594607909A
:105BB0002846FFF7C5FD049B43F040037FE6022023
:105BC000FFF7B6FD00287AD003F046FB04210790CA
:105BD00007A8FFF7B5FD049B43F080036FE60220A2
:105BE000FFF7A6FD00286AD007A9142003F03AFBAE
:105BF00005460421069006A8FFF7A2FD294607A83E
:105C0000FFF79EFD049B43F4807358E66420FFF782
:105C100079FD002853DBC5B21E2D50D80220FFF7B6
:105C200087FD00284BD04FF4D07003F009FB83466A
:105C30004FF4D27003F004FB264B9B453FD1264B1B
:105C400098423CD1DFF894B04FF4D07045EA0B0B8A
:105C5000594603F0EFFA4FF4D07003F0F1FA5845CB
:105C60003FF48FAE41F21213022107A8ADF81C30A9
:105C7000FFF766FDDDE54FF47A70FFF759FDF0B1EF
:105C8000731C0DD141F2120307A80221ADF81C309C
:105C9000FFF756FD6420FFF7A7FD0DB0BDE8F08FBC
:105CA000049B03F01B031B2B09D13146002003F09A
:105CB000C1FA002003F0C4FA8642E3D0D2E741F2F1
:105CC0001233022107A8ADF81C30FFF739FD00237D
:105CD0000493AEE5FFECC2925D7D05C500ECC29277
:105CE00038B50F4B0F4C002808BF184602F0CCFF08
:105CF0000D49206002F0D8FF0C4B00B118604FF046
:105D0000FF320B4D432118682A6002F0D6F80028B4
:105D100005DB28602068BDE83840FEF725BA38BDAD
